:020000020000fc
:040000000001703a51
:0400010004c00074c3
:040002009801483adf
:040003009cfff80462
:04000400983ffd1e06
:040005000000203a9d
:04000600002ee03aae
:0400070000004a06a5
:04000800017fffc4b1
:04000900002ee03aab
:04000a0000001b06d1
:04000b003007883af8
:04000c00002ee03aa8
:04000d0000001806d1
:04000e003009883af3
:04000f0018000426ab
:04001000197fff262f
:04001100002ee03aa3
:0400120000002a06ba
:04001300003ff506af
:04001400002ee03aa0
:0400150000000a06d7
:04001600203ee83a66
:04001700003fff06a1
:04001800002ee03a9c
:0400190000000606d7
:04001a00003fff069e
:04001b0003010004d9
:04001c009300033515
:04001d0002c0c03429
:04001e005896b03a06
:04001f0000000706d0
:04002000bdc001045a
:04002100930002370f
:040022006300080c63
:04002300603ffd2617
:040024009000033510
:04002500b800683a7d
:040026000017883afd
:04002700ba00010416
:04002800000d883a05
:0400290005000104c9
:04002a005816123a18
:04002b00002ee03a89
:04002c0000000606c4
:04002d00328cb03a27
:04002e00300c163a42
:04002f00a53fffc426
:04003000a03ff91ed6
:040031004000683ae9
:040032000017883af1
:04003300bdc0010447
:0400340092400237bd
:040035004a40100c21
:04003600483ffd261c
:0400370092c001353d
:0400380092400237b9
:040039004a40200c0d
:04003a00483ffd2618
:04003b00928000238c
:04003c00b800683a66
:04003d00bdc001043d
:04003e001907883adc
:04003f0018ffffc4e3
:0400400092400237b1
:040041004a40100c15
:04004200483ffd2610
:0400430090000135f3
:0400440092400237ad
:040045004a40200c01
:04004600483ffd260c
:0400470092400037ac
:0400480090000135ee
:04004900224000252c
:04004a00210000444d
:04004b0020fff81e7c
:04004c0092400237a5
:04004d004a40200cf9
:04004e00483ffd2604
:04004f0092400037a4
:040050002240002525
:04005100b800683a51
:04005200bb400104aa
:04005300001ce03a73
:0400540074807fd461
:04005500948000444f
:040056000080000422
:04005700002ee03a5d
:04005800003fc2069d
:04005900040100049a
:04005a0003c0158446
:04005b0003803fc41b
:04005c00002ee03a58
:04005d00003fd40686
:04005e0053c0042661
:04005f005380161e96
:04006000843fffc416
:04006100803ffa1ec4
:04006200003fb506a0
:04006300002ee03a51
:04006400003fc10692
:04006500002ee03a4f
:04006600003fbf0692
:040067003005883a9e
:040068000443c3f496
:040069008c43c3c43d
:04006a000400010489
:04006b00145c703a77
:04006c00741c983a2e
:04006d001404d83a65
:04006e001444703a8c
:04006f001384b03a0c
:040070008020d07aa2
:040071008c1c983a11
:040072008ba2f03a33
:04007300803ff71eb5
:04007400108001c433
:040075001004d0faa9
:04007600002ee03a3e
:04007700003fa80698
:04007800002ee03a3c
:04007900003fa1069d
:04007a006800683a78
:04007b000000000081
:04007c000000000080
:04007d00000000007f
:04007e00000000007e
:04007f00000000007d
:00000001FF
