:030000000215C71F
:0C15C700787FE4F6D8FD75810702152935
:101529001206F374FFFFFE12139EE490002EF0A33F
:10153900F074FF90002CF0A3F07F007EF812139E48
:101549007FB87E0B12156E7FE07E0712139E7FB85F
:101559007E0B12156E7F1F7E0012139E7FB87E0BC5
:0515690012156E80D494
:0215E9002000E0
:0F15B8008FA0C2B6D2B6AF058FA0C2B6D2B622F0
:0D1594001215DE900024E0FCA3E0FDECFF4A
:0515A100D2B50215B8EF
:0B15D300AD07AC06D2B5ECFF0215B866
:0B15DE00AD07AC06C2B5ECFF0215B86B
:0415A600E4FDFCFE66
:0E15AA00AB05AA041215DEAE02AF030215D384
:1014E100900024EEF0A3EFF0A3ECF0A3EDF07F2049
:1014F1007E001215947F211215DEA312159A7F50DA
:101501001215947F521215DEA312159A7F511215EE
:10151100DEEAFFAD031215A17F531215DE90002AFA
:0815210012159A7F220215DE6B
:1006F300D29020905BE4FDFCFFFE1215AA7BFF7AEB
:100703001579E9E4FDFCFFFE1211F59000041210C7
:100713003900000000E4900008F0FDFCFFFE121019
:100723006AE4900006F0FBFAFDFCFFFE12131CE4E2
:10073300FDFCFFFE12144CE4900006F0A3F0FBFA5C
:10074300FDFCFFFE12114BE4FBFDFCFFFE120961F1
:10075300D2B7D2B6C2927F147E0012156ED2927FA8
:10076300147E0012156EC2907D007C017F017E0015
:100773001215AA7D007C077F027E001215AA7D3028
:100783007C107F037E001215AA7F041215A67D0735
:100793007C027F087E001215AA7F091215A6E4FDCC
:1007A300FC7F0AFE1215AAE4FDFC7F0CFE1215AABB
:1007B300E4FDFC7F0DFE1215AAE4FDFC7F0FFE1283
:1007C30015AAE4FDFC7F10FE1215AA7D077C007FAD
:1007D300117E001215AAE4FDFC7F12FE1215AAE495
:1007E300FDFC7F13FE1215AA7D907C127F107E0004
:1007F3001215AA7D277C027F117E001215AA7D1D8A
:100803007C007F127E001215AA7D007C157F137E6B
:10081300001215AA7D187C007F297E001215AA7D7F
:100823000D7C007F2B7E001215AA7D047C007F3097
:100833007E001215AA7D077C037F317E001215AA64
:100843007D027C007F327E001215AA7D067C027F2A
:10085300357E001215AA7D087C047F367E001215B2
:10086300AA7D077C057F377E001215AA7D047C02D2
:100873007F387E001215AA7407FDFC7F397E0012B3
:1008830015AA7D057C047F3C7E001215AA7D027C9F
:100893000F7F3D7E001215AAE4FDFC7F50FE12156A
:1008A300AA7DEF7C007F517E001215AAE4FDFC7F38
:1008B30052FE1215AA7D3F7C017F537E001215AABA
:1008C3007D007CA77F607E001215AA7D017C007FDE
:1008D300617E001215AAE4FDFC7F6AFE1215AAE4EC
:1008E300FDFC7F80FE1215AAE4FDFC7F81FE12153C
:1008F300AAE4FDFC7F82FE1215AAE4FDFC7F83FEC1
:100903001215AAE4FDFC7F84FE1215AAE4FDFC7F08
:1009130085FE1215AA7D107C007F907E001215AA19
:100923007D007C067F927E001215AA7D037C007FEA
:10093300937E001215AA7D107C017F957E0012150F
:10094300AAE4FDFC7F97FE1215AAE4FDFC7F98FE46
:0E0953001215AA7D337C017F077E000215AAD3
:02139E00AC069B
:1013A000EC900007F0A90790002A7401F0A3743FA5
:1013B000F07BEF7A00E4FDFCFFFE1214E1E4900004
:1013C00008F0A3F0E4FBFA900007E0FFAD0112156E
:1013D000A10BBB00010ABA01EEBB40EB900009E093
:1013E00004F07006900008E004F0C3900009E09457
:0913F000F0900008E0940040CBED
:0113F90022D1
:1013FA00900004E0FEA3E0FF900001E02FFF9000C0
:10140A0000E03E900006FEE0FCA3E0FD900003E051
:08141A002DFD900002E03CFCF6
:10142200AB07AA068D828C83C006C007AE83AF824B
:1014320090002AEEF0A3EFF0D007D0061214E1904C
:0A144200002CE0FEA3E0FF0215D32A
:10144C00AB07AA068D828C83EB24FFFFEA34FFFEE8
:10145C00C006C007E58224FFFDE58334FFFCEB24C6
:10146C0001FBE43AFAAE83AF82EF2401FFE43E9035
:10147C000006F0A3EFF090002CE0FFA3E090000832
:0C148C00CFF0A3EFF0D007D006021296BC
:10129600900000EEF0A3EFF0A3ECF0A3EDF0A3EACC
:0412A600F0A3EBF0D6
:1012AA00C007A3E0FFA3E090002ACFF0A3EFF0D09D
:1012BA00071214E1900002E0FFA3E090000ACFF0C9
:1012CA00A3EFF0900006E0FEA3E0FFD390000BE04E
:1012DA009F90000AE09E5039900000E0FEA3E0FBD8
:1012EA00AA06C3900005E09B900004E09A40129081
:1012FA000008E0FEA3E0FF1215D30BBB00010A8031
:10130A00E190000BE004F070BA90000AE004F0806B
:01131A00B220
:01131B0022AF
:0E0B5800900008EEF0A3EFF0A3ECF0A3EDF098
:100B6600E4900012F0A3F0A3F0A3F0900008E0FEDA
:100B7600A3E0FFC3EB9FFFEA9E900016F0A3EFF001
:100B860090000AE0FAA3E0FBC390000FE09BFE9002
:100B9600000EE09A900018F0A3CEF0900008E0FF57
:100BA600A3E0900020CFF0A3EFF0A3EAF0A3EBF0D0
:100BB600900016E0FEA3E0FFD39400EE64809480DC
:100BC600400A90001CE4F0A304F08021EF4E700868
:100BD60090001CF0A3F0801574FF90001CF0A3F0A9
:100BE600C3E49FFFE49E900016F0A3EFF090001878
:100BF600E0FEA3E0FFD39400EE64809480400A9068
:100C0600001EE4F0A304F08021EF4E700890001E51
:100C1600F0A3F0801574FF90001EF0A3F0C3E49FCC
:100C2600FFE49E900018F0A3EFF0900018E0FEA3FA
:100C3600E0FF900016E0FCA3E0FDD39FEE6480F891
:100C4600EC64809890001A4007ECF0A3EDF0800564
:100C5600EEF0A3EFF0E4900010F0A3F090001BE09C
:100C66002401FF90001AE03400FED3900011E09FAB
:100C7600900010E09E4003020D42900020E0FEA38B
:100C8600E0FFA3E0FCA3E0FD121422900016E0FEB4
:100C9600A3E0FF900013E02FF0900012E03EF090EA
:100CA6000018E0FEA3E0FF900015E02FF09000147E
:100CB600E03EF090001AE0FEA3E0FF900012E0FC98
:100CC600A3E0FDD39FEE6480F8EC6480984020EDAD
:100CD6009FFFEC9E900012F0A3EFF090001CE0FE48
:100CE600A3E0FF900021E02FF0900020E03EF0907E
:100CF600001AE0FEA3E0FF900014E0FCA3E0FDD3A1
:100D06009FEE6480F8EC6480984020ED9FFFEC9E97
:100D1600900014F0A3EFF090001EE0FEA3E0FF9019
:100D26000023E02FF0900022E03EF0900011E00456
:0C0D3600F07006900010E004F0020C6267
:010D4200228E
:10114B00900004EAF0A3EBF0900000EEF0A3EFF0B8
:10115B00A3ECF0A3EDF0C007A3E0FAA3E0FB900033
:10116B0002E0FFA3E090000ECFF0A3EFF0D0071248
:10117B000B58900000E0FAA3E0FBFFAE02C007A300
:10118B00E0FCA3E0FD900006E0FFA3E090000ECF93
:10119B00F0A3EFF0D007120B58900006E0FCA3E091
:1011AB00FD900004E0FAA3E0FBA3E0FFA3E09000B6
:1011BB000ECFF0A3EFF0900000E0FEA3E0FF120BC8
:1011CB0058900004E0FAA3E0FBFFAE02C0079000CA
:1011DB0002E0FCA3E0FD900006E0FFA3E090000E10
:0A11EB00CFF0A3EFF0D007020B587D
:0E096100900000EEF0A3EFF0A3ECF0A3EDF099
:10096F00E4A3F0A3F0EBFF7E00A3EEF0A3EFF025DE
:10097F00E0FFEE33FEC374039F900009F0E49E90F6
:10098F000008F0900006E0FEA3E0FFD3900005E022
:10099F009FEE6480F8900004E06480984003020B9F
:1009AF0057C3900001E09FFF900000E09EFE900073
:1009BF0004E0FCA3E0FDC3900003E09DFD90000266
:1009CF00E09CFC121422900006E0FEA3E0FF9000D2
:1009DF0001E02FFF900000E03EFE900004E0FCA33A
:1009EF00E0FDC3900003E09DFD900002E09CFC122F
:1009FF001422900004E0FEA3E0FFC3900001E09FEB
:100A0F00FF900000E09E12140D900006E0FEA3E0A0
:100A1F00FFC3900001E09FFF900000E09EFE90005A
:100A2F0004E0FCA3E0FDC3900003E09DFD900002F5
:100A3F00E09CFC121422900004E0FEA3E0FFC390A0
:100A4F000001E09FFF900000E09EFE900006E0FC9A
:100A5F00A3E0FDC3900003E09DFD900002E09CFC2D
:100A6F00121422900006E0FEA3E0FF900001E02F99
:100A7F00FF900000E03E900004121410900004E07C
:100A8F00FEA3E0FF900001E02FFF900000E03EFE8C
:100A9F00900006E0FCA3E0FDC3900003E09DFD90F5
:100AAF000002E09CFC1214221213FA900006E0FEE2
:100ABF00A3E0FFC3900001E09FFF900000E09EFEC7
:100ACF00900004121411900005E004F070069000DD
:100ADF0004E004F0C3900008E064809480502490F8
:100AEF000004E0FEA3E07802C333CE33CED8F9245E
:100AFF0006FFE43EFE900009E02FF0900008E03E74
:100B0F00F0803F900006E0FEA3E0FFC3900005E0F9
:100B1F009FFF900004E09EFEEF7802C333CE33CEEA
:100B2F00D8F9240AFFE43EFE900009E02FF0900070
:100B3F0008E03EF0900007E024FFF0900006E0345C
:080B4F00FFF01213FA020992F3
:010B5700227B
:060D4300FBE4900011F03A
:100D490090000CEEF0A3EFF0A3ECF0A3EDF0A3EB11
:010D5900F0A9
:100D5A0090000CE0FEA3E0FF900014EEF0A3EFF089
:100D6A0090002CE0FDA3E0900016CDF0A3EDF0D3A7
:100D7A00EF94E0EE94004003020EE090000EE0FCD7
:100D8A00A3E0FD9430EC94014003020EE0900010C1
:100D9A00E024E0F090000CE0FAA3E0FFAE02C00607
:100DAA00C0072407FBE43AFAA3E0FEA3E0240FFFFE
:100DBA00E43E90002AF0A3EFF0D007D0061214E127
:100DCA00900011E06003020E68F9900010E075F0DF
:100DDA0010A4FFE97C002FFFEC35F0FE74032FF519
:100DEA008274013EF583E493900012F0E4A3F0903C
:100DFA000012E030E005900016800390002EE0FF1C
:100E0A00A3E090002CCFF0A3EFF090002CE0FEA31B
:100E1A00E0FF1215D3900012E0C313F090000DE02A
:100E2A0004F0700690000CE004F0900013E004F067
:100E3A00E0C3940840B9900014E0FFA3E090000CCE
:100E4A00CFF0A3EFF090000FE004F0700690000ED0
:100E5A00E004F009E964106003020DD48069E4F942
:100E6A00900010E075F010A4FFE97C002FFFEC352C
:100E7A00F0FE74032FF58274013EF583E49390002B
:100E8A0012F0E4A3F0900013E0FFC39408503390EB
:100E9A000012E030E01F90000DE02FFF90000CE000
:100EAA003400FEE9FD90000FE02DFD90000EE034C5
:100EBA0000FC121422900012E0C313F0A3E004F025
:100ECA0080C309E9B41099900016E0FFA3E09000EE
:060EDA002CCFF0A3EFF0A5
:010EE00022EF
:0814980090000CEFF0A3EDF051
:1014A000A31210390000000190000DE0FF14F0EFCE
:1014B0006020A3E0F8A3E0F9A3E0FAA3E0FB90002A
:1014C0000CE0FFE4FCFDFE120F1090000E12102D38
:1014D00080D690000EE0FCA3E0FDA3E0FEA3E0FFB9
:0114E00022E9
:0E106A00900000EEF0A3EFF0A3ECF0A3EDF089
:10107800E490000BF0900004A3A3E0FEA3E0FFE4DB
:10108800FCFD90000412102DE4900009F090000877
:10109800E0FFA3E0FEC39F400302114AC3EF9E1482
:1010A800FD7F0A121498A804A905AA06AB079000A8
:1010B80004E0FCA3E0FDA3E0FEA3E0FF120F9BE425
:1010C8007B0AFAF9F8120F9B90000AEBF0A3E07084
:1010D8003B900008E014FFA3E0FEC39F502EA3E05E
:1010E8007024EE75F008A4FF900001E02FFF900037
:1010F80000E035F0FE900002E0FCA3E0FDE4900083
:1011080011F07B20803090000B7401F0900009E012
:1011180075F008A4FF900001E02FFF900000E03573
:10112800F0FE900002E0FCA3E0FD90000AE024300D
:10113800FBE4900011F0120D49900009E004F00260
:02114800109500
:01114A002282
:10131C00900000EEF0A3EFF0A3ECF0A3EDF0A3EA45
:04132C00F0A3EBF04F
:10133000E4900007F0900006E0F9A3E0FFC39950A5
:101340005CC3E99F14FD7F0A121498A804A905AA9A
:1013500006AB07900004E0FEA3E0FFE4FCFD120FE3
:101360009BE47B0AFAF9F8120F9BAF03900008EF99
:10137000F0900007E075F008A4FF900001E02FFF57
:10138000900000E035F0FE900002E0FCA3E0FDEBF1
:0D1390002430120D43900007E004F0809817
:01139D00222D
:1011F500900000EEF0A3EFF0A3ECF0A3EDF0A3EB6D
:10120500F0A3EAF0A3E9F0900004E0FBA3E0FAA361
:10121500E0F9120EE16079D3900001E094E09000CE
:1012250000E094004012E4F0A3F0900003E02410E5
:10123500F0900002E03400F0D3900003E094309089
:101245000002E094014011E4900000F0A3F0A3F047
:10125500A3F0FF7EF812139E900000E0FEA3E0FFCE
:10126500A3E0FCA3E0FDA3E0FBA3E0FAA3E0F912F1
:101275000EE1120D43900001E02408F0900000E01B
:101285003400F0900005E475F001120EFA02120C1C
:011295002236
:10156E00E4FDFCC3ED9FEE6480F8EC6480985015AA
:10157E00E4FBFA0BBB00010ABA03F8BBE8F50DBD9C
:05158E0000010C80DEED
:011593002235
:1000030000000000000000000000800000FEFF016F
:1000130000FEFF010006C0000006C0000006C0008D
:1000230000FEFF000006C0000006C0000006C0007E
:1000330000FEFF000006C0000006C0000002000032
:1000430030300C1CF07FFC3F30300C1C30300C1C6B
:1000530030300C1C30300C1CF03FFC1F30300C1CBB
:1000630030300C1C30300C1C30300C1CF03FFC1FAB
:10007300F03FFC1F30300C1C3010040C000000005B
:100083000000000000000000C0000808C0F1FF1FCE
:10009300C0F0FF1FC0484C1CC4DCCC1DCCDC8D1D44
:1000A300DC8E8D1DD8060E1FF8C3EF1DF8F1EC1C76
:1000B300D0601D1CC01C770CFE9FE7003483E30C4B
:1000C30030C3FF1F30C3610030E3610030E36106DA
:1000D30030F3FF0F30DB610030FB610438DB610E6E
:1000E30018CFFF0F18C7610098C761000CC36138B0
:1000F30004C2FF3F06C0010002C00100000000006F
:1001030000000000000000000000000000000000EC
:100113000000000808080808080800001818000074
:1001230000486C24120000000000000000000000E2
:100133000000002424247F1212127F1212120000E6
:100143000000081C2A2A0A0C1828282A2A1C080836
:1001530000000022251515152A5854545422000076
:100163000000000C1212120A76252911916E00006C
:100173000006060403000000000000000000000069
:10018300004020101008080808080810102040003C
:1001930000020408081010101010100808040200D0
:1001A3000000000008086B1C1C6B0808000000001E
:1001B30000000000080808087F080808080000007D
:1001C3000000000000000000000000000606040319
:1001D3000000000000000000FE000000000000001E
:1001E3000000000000000000000000000606000000
:1001F3000000804040202010100808040402020080
:1002030000000018244242424242424224180000A5
:10021300000000080E08080808080808083E000047
:100223000000003C4242422020100804427E0000AD
:100233000000003C4242201820404042221C0000A3
:10024300000000203028242422227E202078000071
:100253000000007E0202021A26404042221C0000D7
:10026300000000382402021A2642424224180000E9
:100273000000007E22221010080808080808000069
:100283000000003C4242422418244242423C000007
:10029300000000182442424264584040241C0000DD
:1002A30000000000000018180000000018180000EB
:1002B300000000000000000800000000000808041F
:1002C3000000004020100804020408102040000031
:1002D3000000000000007F0000007F00000000001D
:1002E300000000020408102040201008040200004F
:1002F3000000003C42424640201010001818000045
:100303000000001C225A555555552D42221C000051
:100313000000000808181414243C224242E700009D
:100323000000001F2222221E22424242221F0000FE
:100333000000007C4242010101010142221C000035
:100343000000001F2242424242424242221F00005A
:100353000000003F4212121E12120242423F0000EE
:100363000000003F4212121E121202020207000096
:100373000000003C2222010101712122221C000005
:10038300000000E7424242427E42424242E700000E
:100393000000003E0808080808080808083E000096
:1003A3000000007C10101010101010101010110F0E
:1003B3000000007722120A0E0A121222227700008E
:1003C300000000070202020202020202427F000052
:1003D30000000077363636362A2A2A2A2A6B00008E
:1003E300000000E346464A4A525252626247000006
:1003F3000000001C2241414141414141221C0000B7
:100403000000003F424242423E0202020207000055
:100413000000001C2241414141414D53321C600008
:100423000000003F4242423E1212222242C7000015
:100433000000007C4242020418204042423E000079
:100443000000007F4908080808080808081C000085
:10045300000000E74242424242424242423C000024
:10046300000000E742422224241414180808000064
:100473000000006B494949495555362222220000A4
:10048300000000E7422424181818242442E700003F
:10049300000000772222141408080808081C000032
:1004A3000000007E2120101008040442423F000097
:1004B30000780808080808080808080808087800E9
:1004C3000000020204040808081010202020404005
:1004D300001E1010101010101010101010101E001D
:1004E300003844000000000000000000000000008D
:1004F300000000000000000000000000000000FFFA
:1005030000060800000000000000000000000000DA
:10051300000000000000003C4278444242FC00001E
:10052300000000030202021A26424242261A000079
:1005330000000000000000384402020244380000BA
:1005430000000060404040784442424264D80000CA
:10055300000000000000003C427E0202423C00001A
:10056300000000F08808087E08080808083E00001C
:10057300000000000000007C22221C023C42423C9E
:10058300000000030202023A4642424242E70000F0
:100593000000000C0C00000E08080808083E0000CC
:1005A3000000003030000038202020202020221EB0
:1005B3000000000302020272120A161222770000E0
:1005C3000000000E0808080808080808083E000094
:1005D300000000000000007F9292929292B7000008
:1005E300000000000000003B4642424242E7000098
:1005F300000000000000003C42424242423C000036
:10060300000000000000001B26424242221E020797
:10061300000000000000007844424242447840E079
:1006230000000000000000774C040404041F0000D5
:10063300000000000000007C42023C40423E0000FB
:10064300000000000008083E080808080830000001
:1006530000000000000000634242424262DC0000EE
:1006630000000000000000E74224241408080000F2
:1006730000000000000000EB49495555222200000C
:10068300000000000000007624181818246E0000F3
:1006930000000000000000E74224241418080807A3
:1006A300000000000000007E22100808447E0000C5
:1006B30000C0202020202010202020202020C00047
:1006C3001010101010101010101010101010101027
:1006D30000060808080808100808080808080600A3
:1006E3000C32C20000000000000000000000000007
:100EE100BB010689828A83E0225002E722BBFE020F
:090EF100E32289828A83E4932242
:100EFA00C5F0F8A3E028F0C5F0F8E5821582700283
:060F0A001583E038F0221F
:100F1000E88FF0A4CC8BF0A42CFCE98EF0A42CFC80
:100F20008AF0EDA42CFCEA8EF0A4CDA8F08BF0A4FE
:100F30002DCC3825F0FDE98FF0A42CCD35F0FCEB5D
:100F40008EF0A4FEA9F0EB8FF0A4CFC5F02ECD3922
:0F0F5000FEE43CFCEAA42DCE35F0FDE43CFC228F
:100F5F0075F008758200EF2FFFEE33FECD33CDCC49
:100F6F0033CCC58233C5829BED9AEC99E5829840CC
:100F7F000CF582EE9BFEED9AFDEC99FC0FD5F0D6A9
:100F8F00E4CEFBE4CDFAE4CCF9A88222B800C1B9D3
:100F9F000059BA002DEC8BF084CFCECDFCE5F0CB11
:100FAF00F97818EF2FFFEE33FEED33FDEC33FCEB4A
:100FBF0033FB10D703994004EB99FB0FD8E5E4F905
:100FCF00FA227818EF2FFFEE33FEED33FDEC33FCF2
:100FDF00C933C910D7059BE99A4007EC9BFCE99AE6
:100FEF00F90FD8E0E4C9FAE4CCFB2275F010EF2F2B
:100FFF00FFEE33FEED33FDCC33CCC833C810D7072B
:10100F009BEC9AE899400AED9BFDEC9AFCE899F865
:0E101F000FD5F0DAE4CDFBE4CCFAE4C8F922F8
:0C102D00ECF0A3EDF0A3EEF0A3EFF02236
:10103900A8828583F0D083D08212105012105012EA
:101049001050121050E473E493A3C583C5F0C5830F
:10105900C8C582C8F0A3C583C5F0C583C8C582C801
:011069002264
:00000001FF
